:020000040800F2
:10000000E8040020050100083B2100088D1F0008BE
:10001000392100087D0A000823270008000000009D
:10002000000000000000000000000000472400085D
:100030008D0C000800000000452400084924000839
:100040001F0100081F0100081F0100081F01000810
:100050001F0100081F0100081F0100081F01000800
:100060001F0100081F0100081F0100081F010008F0
:100070001F0100081F0100081F0100081F010008E0
:100080001F0100081F0100081F0100081F010008D0
:100090001F0100081F0100081F0100081F010008C0
:1000A0001F0100081F0100081F0100081F010008B0
:1000B0001F0100081F0100081F0100081F010008A0
:1000C0001F0100081F0100081F0100081F01000890
:1000D0001F0100081F0100081F0100081F01000880
:1000E0001F0100081F0100081F010008DFF810D0E1
:1000F00000F0D6FB0048004711320008AFF3008043
:10010000E80400200648804706480047FEE7FEE76F
:10011000FEE7FEE7FEE7FEE7FEE7FEE7FEE7FEE7B7
:10012000C5240008ED000008202A04DB203A21FA4B
:1001300002F00021704721FA02F3D040C2F1200200
:100140009140084319467047D2B201E000F8012BF4
:10015000491EFBD270470022F6E710B513460A4647
:1001600004461946FFF7F0FF204610BDF0B480EAC0
:100170000102D40F4200B2EB410F02D20246084600
:1001800011464A0042D0C30DDDB2C1F3C752AD1AC9
:10019000202D35DAC1F3160141F4000204B15242B8
:1001A000C5F1200602FA06F12A411044B3EBD05FF4
:1001B00023D0C4B1012DA0EBC35009DCF0BC4FF03B
:1001C000004202EAC352DBB200F5000000F082B93F
:1001D000400000F1807000EBC350A0F1807040EA55
:1001E000D170490009E0490841EAC071A0EBC35051
:1001F00000F50000400800EBC350F0BC00F061B90E
:100200006142012202EB4101001BF6E7F0BC70479E
:1002100081F00041AAE780F00040A7E780EA0102F0
:1002200010B502F00043400022D04A001FD0010E5A
:1002300001EB1261C0F35600C2F3560240F4000015
:1002400042F40002A0FB022000047F39140400D015
:10025000401C50EA124001D44000491EC2B20C06B4
:1002600004EBD010401C4008802A02D003E000209C
:1002700010BD20F00100002900DA0020184310BD55
:10028000420005D0C0F3C7525242914201DC002027
:10029000704700EBC15070472DE9F04D81EA03042F
:1002A00004F0004B21F0004514464FF0000A23F003
:1002B000004150EA050220D054EA01021DD0C5F3E6
:1002C0000A570246C5F31303C1F31300C1F30A56DC
:1002D00040F4801543F48013A7EB0608101BD646A4
:1002E00008F2FD3873EB050002D308F1010801E0C4
:1002F00092185B41B8F1000F03DA00200146BDE817
:10030000F08D00204FF48011064684460EE0171B46
:1003100073EB050705D3121B63EB050306434CEA99
:10032000010C49084FEA300092185B4150EA01077E
:10033000EDD152EA030012D082EA040083EA0501FB
:10034000084305D0101BAB4106D20122002306E072
:1003500000224FF0004302E06FF0010253101AEB4D
:1003600006004CEB085110EB0A0041EB0B01BDE815
:10037000F04D00F0DDB870B521F0004303430CD020
:10038000C1F30A550024D5EB040564EB0403D6172A
:10039000AD1AB34102DB0020014670BD201841EBCD
:1003A000025170BD96230022114600F093B820F050
:1003B0000040C10DC0F3160040F400007F2901DAAF
:1003C00000207047962903DCC1F19601C8407047B0
:1003D00096398840704700F0004230F000400AD063
:1003E000C10D01F56071C0F3160042EA0151C20867
:1003F00040071143704700200146704701F0004359
:1004000030B421F0004150EA010206D00A0DA2F5F5
:100410006072C1F31301002A02DC30BC0020704777
:10042000440F44EAC104C100E01830BC00EBC250E4
:1004300000F047B830B50B460146002020220124C9
:1004400009E021FA02F59D4205D303FA02F5491BA2
:1004500004FA02F52844151EA2F10102F1DC30BDB8
:100460002DE9F05F0546002092469B4688460646E9
:10047000814640241BE02846414647462246FFF776
:1004800053FE53465A46C01A914110D3114618469E
:10049000224600F017FA2D1A67EB01084F46224654
:1004A0000120002100F00EFA17EB00094E41201E3A
:1004B000A4F10104DFDC484631462A464346BDE844
:1004C000F09F0029A8BF7047401C490008BF20F0DA
:1004D0000100704710B4B0FA80FC00FA0CF050EA4A
:1004E000010404BF10BC704749B1CCF1200421FACB
:1004F00004F411FA0CF118BF012121430843A3EBC6
:100500000C01CB1D4FEA00614FEA102042BF0020D2
:1005100010BC704700EBC35010440029A4BF10BCAE
:100520007047401C490008BF20F0010010BC704714
:1005300010B5141E73F1000408DA401C41F10001EB
:1005400092185B411A4301D120F0010010BD2DE942
:10055000F04D92469B4611B1B1FA81F202E0B0FA39
:1005600080F22032904600F0ADF904460F4640EA92
:100570000A0041EA0B0153465A46084313D011467C
:1005800053EA010019D0C8F140025046FFF7CCFDF4
:1005900005460E4650465946424600F093F9084338
:1005A00005D0012004E020463946BDE8F08D00204A
:1005B000054346EAE0762C4337430A986305E40A8C
:1005C000A0EB08000022FD0A44EA47540A3002D595
:1005D00000200146E9E7010510196941DDE90845F8
:1005E00000196941BDE8F04DA2E72DE9FE4F8046B4
:1005F00081EA0300C00F0C46009021F0004123F077
:100600000045B8EB0200A94105D24046214690467C
:100610001C460B46024623F00040104347D0270DEE
:10062000C7F30A00C3F30A510290401A0190402810
:100630006BDAC3F3130040F4801B0098924620B19C
:100640000023D2EB030A63EB0B0B01985946C0F170
:100650004002504600F036F906460D4650465946CF
:10066000019A00F03EF910EB08006141002487EA8E
:10067000115284EAE7731A4340D0009A62B3019A98
:10068000012A4FEA075215DC001B61EB02014FF013
:10069000004202EA0752CDE90042001C41F58011F8
:1006A00032462B46FFF753FF03B0BDE8F08F4046BC
:1006B0002146F9E7001B61EB0201001C41F58013A4
:1006C00000185B412018A2F5001747EB030140EA30
:1006D000D570B6196D4111E06D084FEA360645EA4E
:1006E000C0754FEA0752001B61EB0201001C41F587
:1006F000801149084FEA30000019514132462B461B
:1007000003B0BDE8F04FFFF713BF0098012240008F
:100710000023D0EB020263EBE073009821464FEA1E
:10072000E074B8EB000061EB0401E9E783F00043FB
:100730005BE781F0004158E72DE9FE4F81EA0304B1
:1007400004F0004421F0004100944FF0000B23F02E
:10075000004350EA01045ED052EA03045BD0C3F3C5
:100760000A54C1F30A552C44A4F2F3340194A0FBBB
:100770000254C1F3130141F48011C3F3130343F492
:10078000801301FB024400FB034E840A970A44EAEB
:10079000815447EA8357A4FB076802958D0A05FB3D
:1007A00007854FEA932C04FB0C542705029D4FEA62
:1007B000065847EA1637B5EB08056EEB070C870EAF
:1007C000920E47EA811742EA8312A7FB0201B6EBB9
:1007D0000B0164EB00042B0D43EA0C335E1844EB71
:1007E0001C50DA465146E7FB0201C5F313044FEAF9
:1007F0000B3343EA14534FEA0432019C43EA0603E5
:10080000A4F10C040294009CCDE900B4FFF79FFE14
:1008100003B0BDE8F08F00200146F9E70EB5C10F27
:1008200080EAE0700844CA07002140F233438DE8B3
:100830000E000A460B46FFF78AFE03B000BDC1F367
:100840000A52C1F3130140F2FF3341F480119A427E
:1008500002DA00200146704740F233439A42A2F286
:10086000334202DC5242FFF75FBC00F02BB80000BD
:1008700030B5041E71F1000404DB4FF00044404227
:1008800064EB0101141E73F1000405DB1C464FF0FC
:100890000043524263EB0403994208BF904230BDCB
:1008A000064C074D06E0E06840F0010394E80700BD
:1008B00098471034AC42F6D3FFF71CFC984500086B
:1008C000B8450008202A04DB203A00FA02F1002093
:1008D00070479140C2F1200320FA03F3194390407E
:1008E0007047202A06DBCB17203A41FA02F043EA90
:1008F000E07306E041FA02F3D040C2F120029140D9
:100900000843194670472DE9F04D00231A461B1A7B
:100910008A4103DB00200146BDE8F08DC1F30A5295
:10092000C1F3130141F480154FF0000BD10702D140
:1009300000186D41521E0027044640F2FF11384650
:1009400001EB620A3E468046024600204FF48011C9
:10095000FFF7EAFBC2197141BB1846EB0100B4EB8B
:10096000030C75EB000C04D3E41A65EB0005174685
:100970000E46241908F101006D4180463428E3DD5C
:10098000F91946EB0600091BA84103D24FF0FF32CC
:10099000134601E0002213461BEB070046EB0A5109
:1009A000BDE8F04DFFF7C4BD70B50446006881682E
:1009B000C943C90717D1816821F00101816000F0A6
:1009C00033FD05460AE000BF00F02EFD401B022863
:1009D00004D920688068C043C00706D020688068BA
:1009E000C043C007F0D0002070BDA06A40F01000E6
:1009F000A062E06A40F00100E062012070BD0000EA
:100A0000F8B500260446009600688168C943C90706
:100A10002DD0816841F001018160164816490068B7
:100A2000B0FBF1F000E0401E00900028FBD100F088
:100A3000FBFC054616E000BF00F0F6FC401B022858
:100A400010D920688068C043C0070BD0A06A40F06E
:100A50001000A062E06A40F00100E06284F82460C7
:100A60000120F8BD20688068C043C007E4D10020A1
:100A7000F8BD00001000002040420F00FEE700001B
:100A800001221103014800F0CABC0000000C014023
:100A900000224FF48051014800F0C1BC000C01401D
:100AA0000448054900780978084301D0FFF7F0BFF2
:100AB000FFF7E6BF000000200100002070B51848D5
:100AC0000024016821F00F010160016841F0080174
:100AD00001608515061F04E0641CE4B2012000F0EB
:100AE000D7F82946304600F095FC10B1642CF3D3BA
:100AF0000FE0642C0DD2002404E0641CE4B2012059
:100B000000F0C6F82946304600F084FC18B1642C89
:100B100004D3012070BD642CEFD3FAE7002070BD30
:100B20000408014030B585B0002002901148816969
:100B300041F00401816180694FF4807400F0040089
:100B400004900120CDE9004003200B4D039069463D
:100B5000284600F06FFB01222146284600F05FFC8A
:100B6000064801F0AFF800F071F8FFF7A7FF05B0F5
:100B700030BD000000100240000801405800002075
:100B800070B500244FF48075134E04E0641CE4B289
:100B9000012000F07DF82946304600F03BFC08B10A
:100BA000642CF3D3002404E0641CE4B2012000F0C0
:100BB0006FF82946304600F02DFC08B9642CF3D3B9
:100BC000282000F065F82946304600F023FC002874
:100BD00000D0012070BD00000008014070B5002069
:100BE00004464006050EFFF7CBFF641C2843E4B221
:100BF000082CF6D370BD00002DE9FC410D460646D9
:100C000000F024F8FFF75AFFE8B900244FEA0D0777
:100C1000FFF7E4FF3855641CE4B2052CF8D39DF8C7
:100C200000109DF801009DF803300A189DF802009D
:100C300003441A449DF804309A4204D1297030705C
:100C40000020BDE8FC810120FBE7000070B50E48E4
:100C5000016821F00F010160016841F003010160AA
:100C60008415051F00222146284600F0D8FB1420D9
:100C700000F0CEFA01222146284600F0D0FBBDE864
:100C800070401E2000F004B80408014070470000C6
:100C900070B54FF6FA75094E281A84B2306844626E
:100CA000304601F00FF8306801E0416A8CB2AC4286
:100CB000FBD3BDE87040014801F02CB8580000207B
:100CC00072B6FEE7F8B500250446009590F82400BA
:100CD00001280BD0012084F824002046FFF764FE91
:100CE0002046FFF78DFE060002D050E00220F8BD3E
:100CF000A06A20F4885040F00200A062022000F0B8
:100D000023FC25490968B1FBF0F0400000E0401EDB
:100D100000900028FBD12068816841F008018160C3
:100D200000F082FB074608E000F07EFBC01B0A28AB
:100D300003D920688068000715D420688068000700
:100D4000F2D42068816841F00401816000F06CFBFE
:100D5000074612E000F068FBC01B0A280DD9206886
:100D60008068400709D5A06A20F0020040F010001A
:100D7000A06284F824500120F8BD206880684007F4
:100D8000E8D4A06A20F0020040F00100A06284F8DC
:100D900024503046F8BD000010000020F8B50024B3
:100DA000009490F824202546012A12D0012280F8D0
:100DB00024204A681F23072A0DD20668776B521E2B
:100DC00002EB820293409F430B6893401F4377637B
:100DD00019E00220F8BD06680D2A0AD2376BD21F2F
:100DE00002EB820293409F430B6893401F4337639B
:100DF00009E0F76A0D3A02EB820293409F430B68C9
:100E000093401F43F7620A68072306680A2A0AD339
:100E1000F7680A3A02EB420293409F438B68934083
:100E20001F43F76008E0376902EB420293409F439B
:100E30008B6893401F4337610A68102A01D0112A3A
:100E400020D1124B02689A4217D193681B0219D421
:100E5000936843F4000393600968102912D10C4988
:100E60000C4A0968B1FBF2F101EB8101490000E095
:100E7000491E00910029FBD104E0816A41F0200164
:100E80008162012480F824502046F8BD00240140EE
:100E90001000002040420F000068C06C7047000046
:100EA0002DE9F0414FF0000704003D467ED0A06AD6
:100EB000002628B9E66284F82460204600F07EF817
:100EC0002046FFF771FDA16AC90600D420B1A06ACF
:100ED00040F01000A06269E0A16A21F4885141F05D
:100EE0000201A1626268E169237B0A4347EA430188
:100EF0000A43A1684FF48077B94209D0012907D08D
:100F00005FF0000194F814C0BCF1010F02D00AE0B8
:100F10003946F7E7F3B1A36A43F02003A362E36A1B
:100F200043F00103E3622368D3F804C02CF4694C56
:100F30004CEA010CC3F804C021688B68DFF870C06C
:100F400003EA0C0313438B60A168B9420BD001295B
:100F500009D00CE0DFF85CC0A3690CEB43330B4312
:100F600043F40061DFE7218A0D05A5F580152168AE
:100F7000CB6A23F470032B43CB62216889680E4B44
:100F80001940914208D1E662A16A21F0020141F0C4
:100F90000101A162BDE8F081A06A20F0020040F0EA
:100FA0001000A062E06A40F00100E0620120F1E779
:100FB000FDF7E1FF00E0FFFFFE0E1FFF00B585B06B
:100FC0000021009101910291039100680E4988422D
:100FD00018D10E48816941F400718161816901F481
:100FE00000710491816941F0040181618069694661
:100FF00000F00400049002200090032001900448B7
:1010000000F018F905B000BD0024014000100240B6
:10101000000801402DE9F84300270D4604460097DB
:1010200000F002FA804620688168C90508D5A06AE8
:1010300040F02000A06284F824700120BDE8F8830D
:101040004168C90503D4C06A10F4700F2AD0022089
:1010500000F07AFA3B490968B1FBF0F620680369B1
:1010600039490B424FEA61014FEAA1121FD1C3680F
:101070004FEA611C13EA0C0F19D103690B4225D109
:10108000C068104222D1142023E0681C0AD02DB180
:1010900000F0CAF9A0EB0800A84203D92068006854
:1010A000800725D5206800688007EED52DE003690C
:1010B0000B4202D1C168114206D0026923490A429B
:1010C00006D1C068084203D1542002E0292000E084
:1010D000FC204643009816E0681C11D02DB100F0AA
:1010E000A3F9A0EB0800A8420AD90098B04207D2A1
:1010F000A06A40F00400A06284F8247003209DE7F9
:101100000098401C0090B042E6D321686FF01200B6
:101110000860A06A40F40070A06220688068C0F394
:10112000424007280CD1207B50B9A06A20F480707F
:10113000A062A06AC00403D4A06A40F00100A062CB
:1011400000207BE7100000202449922449922400CB
:1011500070B5044690F8240001280DD0012084F8D1
:1011600024002046FFF74CFC02004FF0000005D0A1
:1011700084F82400104670BD022070BDA16A40F2C0
:101180000123994341F48071A1621F4D23681F49D7
:10119000AB4218D10E6816F4702F14D0A66A46F42C
:1011A0008016A6620E68760505D5A66A26F4005656
:1011B00046F48056A662A66AF6040AD5E66A26F0C8
:1011C0000606E66206E0A66A26F48016A6625E6857
:1011D000E9E7E06284F824006FF0020018602068FC
:1011E0008368C3F34243072B05D1A84208D109689D
:1011F00011F4702F04D0816841F480118160B9E747
:10120000816841F4A001F9E700280140042401406D
:1012100070B5044600F008F90546601C02D0044889
:101220000078044400F000F9401BA042FAD370BDDE
:10123000040000202DE9F84FDFF8B8910024A9F14F
:10124000040B23460F2709F1040AABF1040EC9E091
:101250000125A5402A40AA427DD1674ED1F804C09D
:10126000ACEB0608B44532D014DCBCF1030F3AD025
:1012700009DCBCF1000F2AD0BCF1010F1CD0BCF17D
:10128000020F31D11DE0BCF1110F17D0BCF1120FCC
:101290002AD119E0B8F5881F19D006DCB8F5803FCF
:1012A00015D0B8F5801F1FD111E0B8F5001F0ED082
:1012B000B8F5041F18D10AE0CB6815E0CB681B1DF8
:1012C00012E0CB6808330FE0CB680C330CE08B687E
:1012D0002BB1012B4FF0080303D0456104E0042338
:1012E00002E0056100E00023FF2A01D8064601E084
:1012F00000F104064FEA840501D9A5F12005D6F8CE
:10130000008007FA05FC28EA0C0803FA05F548EA0C
:101310000508C6F800804D68ED0062D5374DAE690E
:1013200046F00106AE61AD6924F0030605F0010543
:101330000095334D06EB050CDCF80850A607360F78
:1013400007FA06F825EA0805DFF8B880404503D11A
:101350004FF0000817E044E0DFF8AC80404502D1D0
:101360004FF001080FE0DFF8A480404502D14FF0B4
:10137000020808E0DFF89880404502D14FF00308EA
:1013800001E04FF0040808FA06F848EA0508CCF82E
:1013900008804D68D9F80060ED024D4601D516432E
:1013A00000E096432E604D68DAF80060AD025546C5
:1013B00001D5164300E096432E604D68DBF80060CF
:1013C000AD035D4601D5164300E096432E604D689F
:1013D000DEF80060ED03754601D5164300E0964344
:1013E0002E60641C0D682A46E5407FF431AFBDE8ED
:1013F000F88F0000080401400000111000100240A6
:101400000000014000080140000C014000100140B4
:10141000001401408068084000D0012070470AB1E4
:10142000016170470904FBE70148806870470000CC
:1014300004000020024881680278114481607047EE
:1014400004000020074810B5016841F01001016058
:10145000032000F067F80F2000F006F800F024F8F1
:10146000002010BD0020024070B50D4D04464FF421
:101470007A712878B1FBF0F00A490968B1FBF0F005
:1014800000F096FB48B9102C07D200222146501ECE
:1014900000F028F800206C6070BD012070BD0000D5
:1014A00004000020100000200C4808B5816941F0BC
:1014B00001018161816901F001010091C16941F07F
:1014C0008051C161C06900F08050009004484168BB
:1014D00021F0E06141F00071416008BD0010024060
:1014E00000000140F0B40E4B1B680C46C3F302230E
:1014F000C3F10705042D00D90425191D072901D2C0
:10150000002300E0DB1E012606FA05F1491E2140FA
:1015100099409E40761E16403143F0BC01F030B930
:101520000CED00E0064900F0070208684FF6FF03E3
:10153000184040EA0220034A104308607047000048
:101540000CED00E00000FA0510B501460020234C28
:10155000012922D0022939D010291DD161682268C1
:10156000D20119D51E48C1F38342C903805C0AD554
:1015700061681B4AC1F34041921E515C194AB2FB9B
:10158000F1F1484301E0184948436168490203D436
:1015900040000321B0FBF1F010BD226AC2F301212B
:1015A000012903D1920701D5C80310BD022905D135
:1015B000626A920702D549F6404010BD0329FCD16A
:1015C00021688903F9D54FF2244010BD00F02AF9B3
:1015D0006168C1F38131491C4900DBE7001002401A
:1015E000EC3E000800127A0000093D002DE9F843A6
:1015F00005460078354CC00754D0E0690026C0008D
:1016000008D4E06940F08050E061E069012600F014
:10161000805000902E480168C90512D401688046A8
:1016200041F480710160FFF7FFFE074605E000BF4F
:10163000FFF7FAFEC01B642823D8D8F80000C005C5
:10164000F6D5206A10F4407021D0A98801F44071C9
:1016500081421CD0206A1F49012220F440700A6098
:1016600000220A602062C00711D0FFF7DDFE0746A6
:1016700041F2883808E000BFFFF7D6FEC11B4145A4
:1016800002D90320BDE8F883206A8007F4D5206AD8
:10169000696820F44070084320621EB1E06920F0C0
:1016A0008050E0612878800705D56068A96820F43B
:1016B0004040084360602878C00605D56068E96846
:1016C00020F48000084360600020DBE70010024047
:1016D00000700040400442422DE9F0470F460500EB
:1016E00061D0434E306800F00700B84209D230683C
:1016F00020F0070038433060306800F00700B8423F
:1017000051D128683B4C810712D5400703D560684A
:1017100040F4E06060602878000703D5606840F41A
:10172000605060606068A96820F0F0000843606065
:101730002878C00728D06868012810D021680228BE
:1017400010D0890700292EDA616821F003010143D6
:101750006160FFF769FE804641F288390DE021683B
:101760008903EFE78901EDE7FFF75EFEA0EB0801D3
:10177000494502D90320BDE8F0876068696800F038
:101780000C00B0EB810FEFD1306800F00700B842D9
:101790000BD9306820F0070038433060306800F023
:1017A0000700B84201D00120E5E72878400705D5B9
:1017B0006068E96820F4E06008436060287800070A
:1017C00006D56068296920F4605040EAC100606075
:1017D00000F038F86168084AC1F30311515CC84051
:1017E0000649086006480068FFF73EFE0020C2E791
:1017F0000020024000100240FC3E000810000020C3
:10180000080000200448054900684968044AC1F3FB
:101810000221515CC84070471000002000100240B7
:101820000C3F00080448054900684968044AC1F3B0
:10183000C221515CC84070471000002000100240D7
:101840000C3F00080E4A51680E4801F00C03042BAF
:1018500011D0082B0FD10C48C1F38343C903C05CDE
:101860000AD55168084AC1F34041921E515C054AAD
:101870005043B0FBF1F07047044948437047000003
:101880000010024000127A00DA3E000800093D0014
:101890002DE9F84F040070D02078C04DC00749D022
:1018A0006868C0F38100012807D06868C0F3810030
:1018B000022809D16868C00306D52868800339D595
:1018C00060680028E7D035E06068B0F5803F0BD055
:1018D00010B1B0F5A02F11D0286820F48030286016
:1018E000286820F4802002E0286840F480302860D6
:1018F000606890B1FFF798FD06460AE0286840F45A
:1019000080202860F0E700BFFFF78EFD801B642871
:1019100073D828688003F7D50CE0FFF785FD0646ED
:1019200005E000BFFFF780FD801B6428F0D8286821
:101930008003F7D420789A4E80074FF001094FF0CA
:10194000000839D5686810F00C0F07D06868C0F33C
:101950008100022809D16868C00306D4286880077E
:1019600014D52069012808D110E02069B0B1C6F86B
:101970000090FFF759FD074605E00AE1FFF754FD27
:10198000C01B0228C4D828688007F7D52868616979
:1019900020F0F80040EAC10028600DE0C6F80080A1
:1019A000FFF742FD074604E0FFF73EFDC01B02289B
:1019B00023D828688007F7D4207800072CD57948E9
:1019C000A169D9B1C0F80090FFF72EFD074604E0E9
:1019D000FFF72AFDC01B02280FD8686A8007F7D5D9
:1019E00071484FF4FA510068B0FBF1F0009000BF6D
:1019F0000098411E0091FAD20EE080E0C0F800800D
:101A0000FFF712FD074604E0FFF70EFDC01B02289A
:101A100075D8686A8007F7D42078400760D5E869F0
:101A20000027C00008D4E86940F08050E861E86908
:101A3000012700F0805000905C480168C90513D46C
:101A40000168834641F480710160FFF7EDFC824636
:101A500006E000BFFFF7E8FCA0EB0A0064284ED8C0
:101A6000DBF80000C005F5D5E06801280AD008B110
:101A7000052813D0286A20F001002862286A20F087
:101A8000040002E0286A40F001002862E06841F2A8
:101A9000883B98B1FFF7C8FC82460BE0286A40F00B
:101AA00004002862EEE700BFFFF7BEFCA0EB0A01CE
:101AB00059455AD8286A8007F6D50CE0FFF7B4FCE0
:101AC000824605E0FFF7B0FCA0EB0A0159454CD86F
:101AD000286A8007F6D41FB1E86920F08050E861D9
:101AE000E06988B36968C1F38101022944D0022802
:101AF000C6F8608004D0FFF797FC044638E034E075
:101B0000FFF792FC074604E0FFF78EFCC01B02289B
:101B10002BD828688001F7D4206AB0F5803F05D122
:101B20006868A16820F4003008436860D4E90801BF
:101B30000843696821F4741108436860C6F860902E
:101B4000FFF772FC044606E025E000BFFFF76CFCDF
:101B5000001B022809D828688001F7D51BE000BFC8
:101B6000FFF762FC001B022802D90320BDE8F88FB2
:101B700028688001F4D40EE00128F7D06868226A52
:101B800000F48031914204D1616A00F470108842FF
:101B900001D00120EAE70020E8E700000010024041
:101BA00000004242800442421000002000700040C9
:101BB00010B5401EB0F1807F01D3012010BD4FF061
:101BC000E02460610F21601700F0DAFD0020A061C1
:101BD00007202061002010BD70B590F83C20012A3C
:101BE00026D0012480F83C40022280F83D20036882
:101BF0005A689D6822F070060A6832435A600D4B9D
:101C000002689A4208D0B2F1804F05D00A4B9A423E
:101C100002D00A4B9A4204D1496825F08003194347
:101C2000916080F83D40002180F83C10084670BD6E
:101C3000022070BD002C014000040040000800405C
:101C400010B5040003D094F83D0010B107E0012066
:101C500010BD002084F83C00204600F01FF8022050
:101C600084F83D00211D206800F02EFC012084F83E
:101C7000460084F83E0084F83F0084F8400084F871
:101C8000410084F8420084F8430084F8440084F85A
:101C9000450084F83D00002010BD000008B5006834
:101CA0000649884208D10648816941F40061816192
:101CB000806900F40060009008BD0000002C014025
:101CC0000010024090F83D10012901D0012070471A
:101CD000022180F83D1000680B49884208D0B0F11D
:101CE000804F05D00949884202D00949884204D171
:101CF000816801F00701062903D0016841F0010164
:101D00000160002070470000002C014000040040EA
:101D10000008004001680A6A41F211131A4207D113
:101D20000A6A9B101A4203D10A6822F001020A6073
:101D3000012180F83D100020704770B5044690F8EE
:101D40003C000025012817D0012684F83C600220C1
:101D500084F83D002068826822F0770222F47F42F6
:101D600082600868502838D00DDC20284FD005DC70
:101D700090B3102811D14AE0022070BD302846D01F
:101D800040280AD13BE060282FD070280DD0B0F554
:101D9000805F03D0B0F5005F12D0012584F83D606C
:101DA000002084F83C00284670BDCB68D1E90121B1
:101DB000206800F0C5FB2068816841F0770109E0E8
:101DC000CB68D1E90121206800F0BAFB2068816866
:101DD00041F480418160E1E719E0CA684968206800
:101DE00000F0C0FB5021206806E0CA6849682068FE
:101DF00000F0C9FB6021206800F0ACFBCEE7CA68A8
:101E00004968206800F0AEFB40212068F4E72268B2
:101E100001461046F0E770B5040004D094F8410084
:101E2000002510B106E0012070BD84F84050204626
:101E300000F024F8242084F841002068C16821F4CF
:101E40000051C160204600F0D7FB2068016921F4F1
:101E5000904101612068416921F02A0141612068B7
:101E6000C16841F40051C1606564202084F84100DC
:101E700084F842006563002070BD000030B585B075
:101E80000024009401940294039400681449884249
:101E900024D11448816941F480418161816901F450
:101EA00080410491816941F00401816180690E4D96
:101EB00000F0040004904FF40070009002200190A4
:101EC0000320039069462846FFF7B4F92815CDE9A9
:101ED0000004694628460294FFF7ACF905B030BD0E
:101EE0000038014000100240000801402DE9F8438D
:101EF000044690F84100984616460D46202802D028
:101F00000220BDE8F88385B17EB100206064212005
:101F100084F84100FFF788FAA6848146E684A06829
:101F20002027B0F5805F02D003E00120E9E72069B7
:101F300010B12E4600250EE000260CE08021204640
:101F400000F0B6FBA8B9C6B116F8010B21684860CD
:101F5000E08C401EE084E08C4B464FF00002CDF850
:101F600000800028EAD14FF04001204600F0A0FB9D
:101F700040B184F841700320C3E735F8020BC0F389
:101F80000800E3E784F841700020BAE7FEE70000AC
:101F90003EB5002410480094019402940D498460D9
:101FA000016004730475012505614FF460214460EC
:101FB000C161FEF775FF08B1FEF782FE0095CDE91D
:101FC000015469460448FEF7E9FE002801D0FEF7F7
:101FD00077FE3EBD00240140280000202DE9F04797
:101FE00086B00024294800940194029403948169E6
:101FF00041F020018161816901F020010491816932
:1020000041F004018161816901F004010491816959
:1020100041F0080181618069012200F00800DFF8C9
:1020200070A01703049039465046FFF7F8F94FF4B3
:102030004078002241465046FFF7F1F90125DFF8CC
:102040005490CDE900540226694648460296FFF7AF
:10205000F1F8CDE90075CDE9025669465046FFF723
:10206000E9F82802CDE90004694648460294FFF7E2
:10207000E1F801AA1120CDF8008082E861006946EC
:102080005046FFF7D7F806B0BDE8F08700100240D1
:10209000000C01400008014010B586B0002417482C
:1020A00000940194029403940494134905940160EC
:1020B0004721C0E901144FF6FF71C0E903144461E0
:1020C0008461FFF7BDFD08B1FEF7FAFD4FF48050C3
:1020D000009069460948FFF730FE08B1FEF7F0FDB1
:1020E000049404A905480594FFF776FD002801D063
:1020F000FEF7E6FD06B010BD002C014058000020A0
:102100000C4810B50A4901604FF4E13141600021EB
:1021100081600C22C160C0E904128161C161FFF7D6
:102120007AFE002803D0BDE81040FEF7C9BD10BDFF
:1021300000380140A0000020FEE7FEE770B5002453
:102140000021204600F0E3F80025002000F069F9A6
:102150006D1CEDB2802DF8D3641CE4B2082CEFD3D3
:1021600070BD000010B5FFF739FF064C01221102C7
:102170002046FFF754F920460122BDE810405102E5
:10218000FFF74DB9000C01402DE9F047164E002431
:1021900007464FF080084FF40079B51528FA04F08F
:1021A000384201D0012200E0002249463046FFF7C4
:1021B00036F9012229463046FFF731F90022294637
:1021C0003046FFF72CF9641CE4B2082CE6D3012258
:1021D00029463046FFF723F929463046BDE8F04747
:1021E0000022FFF71CB90000000C014070B501226D
:1021F0000B4D540221462846FFF711F90122160221
:1022000031462846FFF70BF9002221462846FFF702
:1022100006F931462846BDE870400022FFF7FFB8B6
:10222000000C014070B50A4D4FF4007400222146A5
:102230002846FFF7F4F8012211022846FFF7EFF8CD
:1022400021462846BDE870400122FFF7E8B80000AB
:10225000000C014010B500204FF47A720021491C97
:102260009142FCD3401C9042F8D3FFF77BFFAE2095
:1022700000F0C6F8D52000F0C3F8802000F0C0F8C8
:10228000A82000F0BDF83F2000F0BAF8D32000F0FD
:10229000B7F8002000F0B4F8402000F0B1F8A12019
:1022A00000F0AEF8C82000F0ABF8DA2000F0A8F893
:1022B000122000F0A5F8812000F0A2F8CF2000F055
:1022C0009FF8D92000F09CF8F12000F099F8DB206D
:1022D00000F096F8302000F093F8A42000F090F879
:1022E000A62000F08DF88D2000F08AF8142000F070
:1022F00087F8AF2000F084F8BDE81040FFF71EBF5C
:102300000246012000E05043491EFCD2704710B540
:102310000C4640F0B00000F073F8102040EA1410B2
:1023200000F06EF804F00F00BDE8104000F068B84F
:102330002DE9F0410746CE004000083E801E1546BC
:102340004FF0FF38F1B2C0B2FFF7E1FF11480024AF
:1023500000EB05152819A0F5805090F8000E00F04C
:1023600060F8641CE4B2082CF4D308EB4700F1B227
:10237000C0B2FFF7CCFF00242819A0F5805090F8D8
:10238000080E00F04EF8641CE4B2082CF4D3BDE84B
:10239000F0810000143F00082DE9F04700241D469D
:1023A0001646884681460A2713E0291B0A20491E43
:1023B000FFF7A6FFB6FBF0F0B0FBF7F107FB110249
:1023C00008EB0400C1B248463032FFF7B1FF641C8D
:1023D000E4B2AC42E9D3BDE8F0872DE9F0411546FF
:1023E0000E460746002406E03019C1B23846FFF712
:1023F0009FFF641CE4B22A5D002AF5D1BDE8F0819C
:1024000010B50446FFF7F2FE7820FFF7BDFE00206E
:10241000FFF7BAFE2046FFF7B7FEBDE81040FFF712
:1024200001BF10B50446FFF7E1FE7820FFF7ACFED0
:102430004020FFF7A9FE2046FFF7A6FEBDE81040AA
:10244000FFF7F0BE70477047FEF7F4BF30B593B0AA
:1024500028216846FDF77FFE14210AA8FDF77BFEC0
:10246000002501200F9510951195010412958DE816
:10247000230004904FF4E010CDE9081002240794E3
:102480006846FFF705FA08B172B6FEE70AA90F2001
:1024900081E831004FF48060CDE90D0502210AA8E2
:1024A000FFF71AF908B172B6FEE74FF40040119039
:1024B0000F940FA8FFF79AF8002801D072B6FEE734
:1024C00013B030BD70470000F0B50268194B1A4CCC
:1024D0001A4D4FF08047984205D0B84203D0A04231
:1024E00001D0A84203D122F070064A6832439842D4
:1024F00005D0B84203D0A04201D0A84203D122F4B3
:102500004074CA6822434C6922F080022243026070
:102510008A68C2620A688262984201D109690163CD
:10252000012141610169C90703D0016921F001015D
:102530000161F0BD002C0140000400400008004093
:1025400010B5846842EA032224F47F440A432243FC
:10255000826010BD826822F070020A4342F00701D7
:102560008160704710B5036A046A24F001040462B4
:10257000846924F0F00444EA021423F00A020A43B6
:102580008461026210BD10B5036A046A24F010046D
:102590000462846923F0A00324F4704444EA023204
:1025A00043EA01118261016210BD01680C3151E8FA
:1025B000002F22F4907241E80023002BF5D101682E
:1025C000143151E8002F22F0010241E80023002BD2
:1025D000F5D1016B012909D101680C3151E8002FB7
:1025E00022F0100241E80023002BF5D1202180F8D1
:1025F000421000210163704770B50446006801690C
:10260000E26821F44051114301612169A068084347
:10261000616908432168CA6841F20C639A43024326
:10262000CA6020684169A26921F440711143416187
:102630001E492068884202D1FFF7F4F801E0FFF755
:10264000E1F800EBC00101EB00126068642180003A
:10265000B2FBF0F3B3FBF1F36FF018067343B2FB78
:10266000F0F5B2FBF0F605EB8305322303EB05151D
:10267000B5FBF1F5B6FBF1F605F0F00505EB061537
:10268000B2FBF0F6B2FBF0F0B0FBF1F06FF0180225
:10269000504306EB800003EB0010B0FBF1F0216823
:1026A00000F00F002844886070BD00000038014031
:1026B0002DE9F843984617460D460446089E24E047
:1026C000701C22D0FEF7B0FEA0EB0800B0421AD872
:1026D000CEB12068C168490717D5802D15D0402D8F
:1026E00013D00168C94309070FD401680025406869
:1026F00000902046FFF759FF0820606484F840509E
:102700000120BDE8F8830320FBE72068006835EA74
:10271000000004D00020B842D2D00020F1E7012010
:10272000F9E7FEE77CB50C001D461646014601D0D0
:10273000601E00E00020CDE90010064B6A462946E5
:10274000304600F07BF9002C02D0009A0021117075
:102750007CBD000043310008490050EAC12018BF89
:1027600004204A0D18BF40F0010040F2FF72B2EBA6
:10277000515F08BF40F00200012808BF05207047E4
:102780000907090E002804DB00F1E02080F800149E
:10279000704700F00F0000F1E02080F8141D704732
:1027A0002DE9F0414F1E00EBC7010446D1E90001BD
:1027B00015461E4637F006020DD02A463346FDF771
:1027C000BBFF7F1E04EBC703D3E90023FDF70DFF1A
:1027D00037F00602F1D1022F25D0042F13D0062F97
:1027E00018BFBDE8F0812A463346FDF7A5FFD4E9BE
:1027F0000A23FDF7FAFE2A463346FDF79DFFD4E98A
:102800000823FDF7F2FE2A463346FDF795FFD4E98B
:102810000623FDF7EAFE2A463346FDF78DFFD4E98D
:102820000423FDF7E2FE2A463346FDF785FFD4E98F
:102830000223FDF7DAFE2A463346FDF77DFFD4E991
:102840000023BDE8F041FDF7D0BE00000022134692
:1028500010460149FDF720BD0000F03FFDF7C5BE61
:102860000022134610461146FDF716BD40F2013214
:1028700000204FF0E041FDF77EBD0000024A00203D
:102880001107FDF778BD000001FDFFFF02E008C859
:10289000121F08C1002AFAD170477047002001E0DA
:1028A00001C1121F002AFBD17047000001490860D6
:1028B00070470000240000202DE9FF5F82B0002156
:1028C000DDE90430020DDDF840B0034318D044F6D2
:1028D0001050A2F2FF3242431514119801281FD064
:1028E000A5EB0B00401C5FEA000A4FF000064E4FBC
:1028F000DFF83891B046504615D5CAF1000413E010
:10290000119801244AA3012801D16FEA0B01029812
:10291000119AC0E90031C0E9024206B0BDE8F09F5B
:10292000CBF10000DFE704460021404A491842EBA2
:102930000450CDE9001012E0E00707D032463B46D4
:1029400040464946FDF7F8FE8046894632463B46FA
:1029500010461946FDF7F0FE06460F466410002C9F
:10296000EAD1DDE90401DDE90023BAF1000F06DA5E
:10297000FDF7E2FE42464B46FDF7DEFE05E0FDF7C1
:102980008BFC42464B46FDF787FC04460E46002270
:10299000284BFDF76DFF03D84FF0FF30014607E0ED
:1029A0000022254B20463146FDF71FFEFDF747FF6D
:1029B000102409E0002C0ADB0A220023FDF750FD59
:1029C000039B30321A55641E50EA0102F2D1641C96
:1029D000039AC4F111031444119A012A03D001226D
:1029E00008430DD10AE0084304D000204FF0110B3A
:1029F000119072E7A3EB0B056D1E0DE05B4504DD46
:102A00004FF0000205F1010504E003DA4FF0000287
:102A1000A5F10105002AECD002981199C0E9023114
:102A2000C0E9004579E70000000014400000F03FD5
:102A3000300000000000F0430000E03F2DE9FF4FB0
:102A400095B09A46884606460025EEE1252877D1BE
:102A500000242746F94A0121039400E0044316F8B4
:102A6000013F203B01FA03F01042F7D130782A28C9
:102A700011D06FF02F033078A0F13002092A16D858
:102A8000039A44F0020402EB820203EB4202104478
:102A9000761C0390EFE758F8042B0392002A03DA20
:102AA000504244F40054039044F00204761C307801
:102AB0002E2816D116F8010F44F004042A280DD050
:102AC0006FF02F023078A0F13003092B09D807EB03
:102AD000870302EB4303C718761CF3E758F8047B1F
:102AE000761C30786C280FD006DC4C2817D068286C
:102AF0000DD06A2814D104E0742810D07A280FD1A0
:102B00000DE044F400140AE044F4801401E044F4BD
:102B100040147278824202D104F58014761C761C2F
:102B2000307866280BD013DC582877D009DC0028D1
:102B300075D04528F6D04628F4D047281AD193E11D
:102B400018E0632835D0642879D0652812D18BE14C
:102B5000702873D008DC6728F1D069286FD06E2800
:102B60000DD06F2806D1ACE073282CD0752874D016
:102B7000782853D05246179990476D1C54E1C4F3FE
:102B80000250022809D003280DD0D8F800100428DC
:102B90000DD00D6008F1040846E1D8F80010EA17DE
:102BA000C1E90052F6E7D8F800100D80F2E70D7089
:102BB000F0E718F8041B8DF8001000208DF80100D4
:102BC000EB46012003E058F804BB4FF0FF306107EB
:102BD0004FF0000102D40DE009F101018946B9422C
:102BE0000FDA8145F8DB1BF809100029F4D108E061
:102BF00009F1010189468142FADB1BF8091000291D
:102C0000F6D103985346A0EB090721463846179A98
:102C100000F080FA284400EB090507E044E008E1F1
:102C20000DE01BF8010B524617999047B9F10109C5
:102C3000F7D2534621463846179AF2E039E00A2186
:102C4000C4F302524FF0000B0091022A06D058F84C
:102C5000040BC117032A09D00AE023E008F107009A
:102C600020F00702F2E80201904605E000B2C11729
:102C7000042A01D140B2C117002906DA0A46002110
:102C8000404261EB02012D2202E0220504D52B22F5
:102C90008DF80420012203E0E20701D02022F7E7AB
:102CA000914657E00A2100E010214FF0000B0091FF
:102CB0000BE010214FF0000B44F0040408270091B2
:102CC00003E008204FF0000B0090C4F30252022AE8
:102CD00005D058F8040B0021032A08D008E008F1B9
:102CE000070020F00702F2E80201904603E080B2FC
:102CF000042A00D1C0B24FF0000922072AD5327849
:102D0000702A07D0DDF800C08CF0100C5CEA0B0CC8
:102D100005D00EE040228DF80420012208E050EAA0
:102D2000010306D030238DF804308DF805200222EF
:102D30009146009B83F0080353EA0B030AD150EA43
:102D4000010201D1620705D530228DF804204FF031
:102D500001097F1E3278582A04D039A20C920CAA9D
:102D600002920BE03BA2F9E75B46009AFDF778FB85
:102D70000C9B9B5C029A521E0292137050EA010255
:102D8000F2D1029804A9081A00F1200B600702D5BD
:102D900024F4803400E001275F4502DDA7EB0B003F
:102DA00000E0002000EB0B01009003984944401A1A
:102DB0000390E00306D453462146179A039800F087
:102DC000A9F90544002706E001A85246C05D1799FD
:102DD00090476D1C7F1C4F45F6DBE0030CD5534636
:102DE0002146179A039800F095F9054404E0302035
:102DF0005246179990476D1C0099481E0090002973
:102E0000F5DC08E00298029952460078491C0291CC
:102E1000179990476D1CBBF10001ABF1010BF1DC80
:102E20005BE100F065F90544761C307800287FF4FA
:102E30000DAE19B02846BDE8F08F0000092801004A
:102E40003031323334353637383961626364656620
:102E500000000000303132333435363738394142E2
:102E60004344454600000000600700D4062708F1EF
:102E7000070020F00700F0E80223804603F0004C32
:102E80005FEA0C0001D097A009E0200501D596A0CB
:102E900005E0E00701D095A001E0AFF24C001390EF
:102EA000307823F0004365280CD006DC452809D093
:102EB00046281DD047287FD13BE0662818D06728D8
:102EC0007AD136E00021112F01DB112000E0781CBF
:102ED000CDE9000104A90CA8FFF7EEFCDDE90D0126
:102EE0000C9A4FF0000B07F10109109200914EE08F
:102EF0004FF000400097CDE9011004A90CA8FFF79E
:102F0000DBFCDDE90D020C9B0F994FF0000B9146A5
:102F10001093009211B9791C00EB0109B7EB09007D
:102F200003D4C0F1FF3B07F10109A9EB07000190B1
:102F300042E0012F00DA01270021112F01DD1120CD
:102F400000E03846CDE9000104A90CA8FFF7B4FC65
:102F5000DDE90D010C9A00914FF0000BB94610927B
:102F600021070FD4009A4A4503DA914601E0A9F1FE
:102F70000109B9F1010F05DD109AA9F10101515CB8
:102F80003029F4D0B84202DA10F1040F03DA01213B
:102F9000CDE9011010E0002803DC8344A9EB000117
:102FA00002E0411C494500DD8946A0EB0B00401CB6
:102FB00001904FF000400290200705D40198484549
:102FC00002DB4FF0FF30019000208DF84B0002989B
:102FD0000DF14B07B0F1004F25D002200C902B20B3
:102FE0000D90029800280CDA404202902D200D909E
:102FF00007E00A210298FDF71DFA3031029007F828
:10300000011D0C99481E0C900029F2DC0298002842
:10301000EFD1791E0D980870307800F0200040F054
:10302000450007F8020D11A8C01BC01D029013989F
:10303000007800B1012000EB0901019801EBE0717B
:10304000029801440398401A401E0390E00306D4FE
:1030500053462146179A039800F05CF805441398EC
:10306000007818B15246179990476D1CE00323D59C
:1030700053462146179A039800F04CF805441BE08C
:10308000BBF1000F07DB0098584504DD1098179935
:1030900010F80B0001E01799302052469047019834
:1030A0000BF1010B401E05F10105019004D12E200A
:1030B0005246179990476D1CB9F10001A9F1010919
:1030C000DEDC05E017F8010B5246179990476D1C9E
:1030D0000299481E02900029F4DC53462146179AB3
:1030E00003989EE62D0000002B0000002000000049
:1030F0002DE9F041044600251E461746880404D4F5
:1031000005E039462020B0476D1C641EF9D52846DD
:10311000BDE8F0812DE9F041044600251E469046A9
:10312000C80301D5302700E02027880404D505E036
:1031300041463846B0476D1C641EF9D52846BDE8A7
:10314000F0814A68002A06D00A68531C0B60107090
:103150004868401E486070470A4910B5481CFDF792
:103160004BFD28B1BDE8104007A10F4800F008B999
:1031700004480EA103784278BDE810400A4800F0E8
:10318000FFB80000140000204552524F52202D205D
:103190004661696C656420746F20726561642044C7
:1031A000485431310D0A0000A000002074656D7094
:1031B0003A25642C68756D693A25640D0A00000093
:1031C00010B501210848FEF725F9084902460128F3
:1031D0000870074900D000200870BDE8104005A124
:1031E0000A4800F0CDB8000000080140200000208F
:1031F0000100002068635F73723530315F76616C67
:103200007565203D2025640D0A000000A000002007
:10321000FEF718F9FFF71AF9FEF7E0FEFEF770FF68
:10322000FEF73AFFFEF7B4FEFDF77CFCFFF712F85D
:10323000FEF784FF0948FDF745FD4FF47A7400BF9F
:10324000FFF78AFFFFF7BCFF00F00AF800F0B2F8C2
:10325000FDF726FC2046FDF7DBFFF1E72800002004
:103260002DE9F0412F48FDF773FF4FF0FF35294658
:103270002C48FDF7CFFE2C4C002842D02BA1304823
:1032800000F07EF82FA12E48226800F079F820681F
:10329000FDF788F8DFF8BC804146FCF7BFFF6FF010
:1032A0000B01FCF7EDFF0646FDF795F82A46FDF702
:1032B00062F807460D4631464046FCF7A9FFFDF788
:1032C0008AF83A462B46FCF7E7FFFDF797F8FDF73B
:1032D00082F802460B4620482049FCF7DDFF4FF0FC
:1032E00060421F4B00F0E6F8FDF788F86060226846
:1032F0001C49B2F57A6F09D21B4A904206DA0022C5
:1033000005E00848FDF7C8FD2060BBE701220A7010
:10331000FDF761F8BDE8F04102460B4613A10848ED
:1033200000F02EB828000020180000206164635FC0
:10333000726561645F6572726F720D0A0000000051
:10334000A00000206164635F76616C75653D202597
:10335000640D0A000000A040764F9E6A3A2953404F
:10336000F0F4E43F000000200000FA4470706D5F4C
:1033700076616C7565203D20252E660D0A000000E3
:103380000FB44FF4007130B5ADF5017D054686AB45
:103390006846859AFFF7C6F9044682B2FF2369465C
:1033A0002846FEF7A3FD0DF5017D204630BC5DF8F3
:1033B00014FB000070B5012126A20846FFF70DF8A6
:1033C00026480223062102780120FEF7E5FF24A209
:1033D00009210120FFF701F8234802230F21027879
:1033E0000120FEF7D9FF21A201210220FEF7F5FFFF
:1033F000204C0423052102202268FEF7CDFF1EA2E7
:1034000001210320FEF7E9FF1D4D2868FCF7CFFFDF
:103410000246042305210320FEF7BEFF1948007869
:1034200001280ED018A201210420FEF7D6FF206843
:10343000B0F57A6F07D916492868884203DD15A2CE
:1034400002E017A2EFE718A2BDE8704009210420AE
:10345000FEF7C3BF74656D703A00000015000020D0
:1034600068756D693A000000140000206164633AD9
:10347000000000001800002070706D3A000000008D
:103480001C000020200000202020202020202000E0
:1034900000007A455761726E696E67210000000076
:1034A00050656F706C652100202020202020202096
:1034B000000000002DE9F04D1D460C4698B017465F
:1034C00021F0004123F00043002814BF4FF0010C0D
:1034D0004FF0000C0CEB440CFE4A0CEB02064FEADA
:1034E000620C66452BD33E0018BF012606EB45064D
:1034F0001644F94A964222D3F84A53EA070C02D0FE
:10350000944205D148B918B000201146BDE8F08DAD
:10351000002808BF4FF0000C01D04FF0010C0CEB5D
:10352000440212F5001F0AD8002F14BF4FF0010CFF
:103530004FF0000C0CEB450212F5001F07D918B034
:103540003A462B462146BDE8F04DFFF787B90022E9
:10355000DFF88CA3002CB8BF534526DADFF884C30C
:103560006345A8BF022220DADFF870C39C451CDC4B
:10357000DFF874C30CEB235CBCF1140F08DDCCF155
:10358000340627FA06FC0CFA06F6BE420DD108E016
:103590005FB9CCF1140623FA06FC0CFA06F69E423B
:1035A00003D10CF00102C2F1020251EA000C19D160
:1035B000002D17DA002C18BF022A01D0012A07D0EB
:1035C0000220FFF773F918B0BDE8F04DFFF73EB9E0
:1035D0000220FFF76BF9FFF739F918B081F00041CD
:1035E000BDE8F08DB7F1000C6CD1534525D104F145
:1035F000804212F5801201BF00280020B74918B0A0
:1036000008BFBDE8F08DB548884207DC002DA1BF9A
:103610006046294618B0BDE8F08D07E0281E05DA9F
:1036200080F0004118B06046BDE8F08DAF497944A4
:10363000D1E9000118B0BDE8F08DDFF8A0C2634504
:1036400025D1002D1FDA19B1514512D1D8B909E0A1
:10365000002840F0EC82A24A214618B062F31E0115
:10366000BDE8F08D0020214618B060F31E01BDE8D2
:10367000F08D08DA18B02346BDE8F04D0246002070
:103680006146FCF709BE18B02146BDE8F08D5145F2
:1036900018DAB5F1804F0DD0A5F1005CBCF1FF5CEC
:1036A00010D1B4F1000C0DDB18B06146BDE8F04D4F
:1036B00000F0ECBB234618B00246BDE8F04D1946B9
:1036C000FDF73AB8060024F0004C3BD1D9B1514582
:1036D00033D1002C06DD002DA1BF0020514618B0CB
:1036E000BDE8F08D002C01DD002D1BDB002C13DA72
:1036F000002D11DB012A4FF0000014BF78497C49EE
:1037000018B0BDE8F08D022A18BF002C0AD0012A9B
:1037100008D1002C06DA0AE0002CB8BF002D11DA1F
:10372000012A04D0002018B00146BDE8F08D18B081
:1037300000204FF00041BDE8F08DA1F14050B0F104
:103740007F601AD0012000EBE47050EA020421D01F
:10375000624C521E4FF0000B104304BF4FF0000BA1
:10376000644C654883427CDD644A654893421FDDB2
:10377000884217DB002D25DB37E0002C00DA4AB148
:10378000022A0CBF01204FF0FF3018B0BDE8F04D09
:10379000FDF744B80120FFF789F818B0BDE8F04DF7
:1037A000FFF75EB84D4A8A4202DC002D0ADC1CE0BD
:1037B000814202DA002D18DA04E0484B994220DDFC
:1037C000002D12DD0220FFF771F8FFF74FF80546D4
:1037D0000E460022534658462146FCF7ADFF18B06E
:1037E00066F31E012846BDE8F08D0220FFF75EF863
:1037F000FFF744F80A46214618B062F31E01BDE8FF
:10380000F08D002230466146FCF790FF80460E4660
:103810006FF00102FCF7AFFD4FF05532394BFCF76A
:1038200088FF42463346FCF787FF0022364BFCF701
:1038300080FF824642463346049110461946FCF703
:103840007BFF5246049BFCF777FF8A4600904FF0BF
:10385000C0422E4B40463146FCF76EFF2C4A2B4BA4
:1038600000E027E0CDE9060151460098FCF764FF2F
:1038700082460191274A284B40463146FCF75CFFBF
:103880005246019BFCF752FF82460B4602460591C9
:10389000DDE90601FCF7A9FEDDE9062300268846DE
:1038A0003046FCF743FF5246059BFCF742FF0246B9
:1038B00000F07EB90020B1F5801F07DA35223046CE
:1038C0006146FCF758FD06466FF0340000EB2150CE
:1038D00024E00000FFFF1F00FFFF0F000000F03F8B
:1038E0000000F07F0000404301FCFFFF5E0F00007E
:1038F0000000F0FF0000F0BF0000E0410000F043D6
:10390000FFFFEF3F5555D53F0000E03F4715F73F1C
:10391000FE822B6544DF5DF80BAE543EA0F2FF3013
:103920000190C1F3130040F07F6141F040510291DA
:10393000FE498842D8BF002004DDFD498142C8BF4E
:10394000012001DD0D9008E000200D900198401C41
:1039500001900298A0F5801002900299F5487844F1
:103960000B910D9900EBC100D0E900230F93304675
:103970000A920B99FCF7DAFECDE90601DDE90A218E
:1039800030460F9BFCF731FE02460B460020EA4909
:10399000FCF782FC059102460B460090DDE906012A
:1039A000FCF7CAFE1490E5488A464FF000087844B8
:1039B0000299006812904FF0005040EA61010D98A2
:1039C0000F9B01EB804000F5002109910A9A1298A3
:1039D000FCF7ACFE32460B9BFCF7ABFE424653466F
:1039E000FCF7AAFE0646029140465146099B129AF0
:1039F000FCF7A2FEDDE90623FCF79BFE3246029BA4
:103A0000FCF794FE059B009AFCF796FE0091149A31
:103A10000490534610461946FCF78EFE06460246B1
:103A2000C7480B46029106217844FEF7B9FECDE95E
:103A30000510029B324610461946FCF77DFEDDE973
:103A40000532FCF779FE0591064653464046194675
:103A5000149AFCF7CAFD009B049AFCF76DFE3246EF
:103A6000059BFCF7C2FDCDE90510424653461046C2
:103A70001946FCF761FE0022B24B02910A90FCF756
:103A8000B4FDDDE90532FCF7B0FD0E464246AD4B14
:103A90004046FCF74BFE029B0A9AFCF747FEDDE925
:103AA0000532FCF746FE424602910A903346104624
:103AB0005146FCF741FECDE906015346149A02999E
:103AC0000A98FCF739FE8A4602903346424600992E
:103AD0000498FCF731FE5346029AFCF786FD8246B5
:103AE0000B4602460591DDE90601FCF77EFDDDE9A6
:103AF0000623002088460646FCF718FE5246059B22
:103B0000FCF717FE824609914FF060428E4B30461B
:103B10004146FCF711FE049006918C4A8A4B5046B0
:103B20000999FCF709FE82460291894A894B304681
:103B30004146FCF701FE5246029BFCF756FD864BC0
:103B40007B440D9A03EBC203D3E90023FCF74DFD40
:103B50000E9007910198FCF761FE0591DDE90613CF
:103B600082460E9A0498FCF740FD7C4A7A440D9BED
:103B700002EBC303D3E9002300930292FCF735FD67
:103B80005246059BFCF731FD0026884652463046DA
:103B9000059BFCF7CBFD009B029AFCF7C7FD069B3B
:103BA000049AFCF7C3FD079B0E9AFCF7C2FD024680
:103BB00000200B46029038462946FCF7BDFD8246A0
:103BC00001912B4638461946029AFCF7AFFD324662
:103BD0004346FCF7B1FD5246019BFCF706FD074644
:103BE0008A463246434629460298FCF7A5FD05461B
:103BF0000E463A465346FCF7F8FC594A884691422D
:103C000021DBA8EB020353EA000210D12A46334617
:103C1000FCF78CFDCDE90401524A534B384651461E
:103C2000FCF7E3FCDDE90423FCF722FE21D20220AD
:103C3000FEF73CFEFEF71AFE0A46214618B062F374
:103C40001E01BDE8F08D494B28F000429A4210D386
:103C5000474A08EB020353EA00027FF4C6AD2A4646
:103C60003346FCF763FD3A465346FCF701FE7FF608
:103C7000BCAD0022019228F000403E493E4A01EBD3
:103C80002051824223DA481C4FF4801121FA00F0BF
:103C900040443A4AC0F30A517A44394BA1F2FF3109
:103CA000CB4020EA0303C0F3130040F48010C1F1BD
:103CB0001401C84012680190B8F1000FBCBF404227
:103CC000019028463146FCF731FD05460E462A464E
:103CD000334638465146FCF788FC4FF00008424610
:103CE000284B40460591FCF727FDCDE90601264A01
:103CF000264B40460599FCF71FFD009102902A468D
:103D0000334640460599FCF711FD3A465346FCF709
:103D100010FD1F4A1F4BFCF70FFD009B029AFCF79A
:103D200064FC0746884602460B4635E08E98030041
:103D30007AB60B00A60B00000000F03FDE0B00007F
:103D40000C0B00000000084009C7EE3FFD033ADC01
:103D5000F5015B14E02F3EBEE4090000A809000055
:103D600000009040FE822B654715973C00CC9040A8
:103D700000346F3F01FCFFFF0000E03FF40800004B
:103D8000FFFF0F00432EE63F396CA80C615C20BE9C
:103D9000EF39FAFE422EE63FDDE90601FCF725FC8D
:103DA000DDE9062305460E46FCF7C0FC3A464346CD
:103DB000FCF7BFFC0F462A463346009010461946D2
:103DC000FCF7BAFC824602462E4888460B4605217F
:103DD0007844FEF7E5FC52464346FCF7ADFC2A4624
:103DE0003346FCF7A6FC80468A463B4628463146C9
:103DF000009AFCF7A1FC3B46009AFCF7F6FB069103
:103E0000009000224FF0804340465146FCF78EFC64
:103E10000F460C904246534628463146FCF78CFC30
:103E20003B460C9AFCF738FA069B009AFCF77EFC9E
:103E30002A463346FCF77AFC0022134BFCF779FC48
:103E4000054601980E4601EB00510815002810DCCC
:103E500028463146019AFCF78EFAFEF77DFC0428CD
:103E600008BFFEF70BFD28463146019AFCF783FA9E
:103E700005460B4618B02A4658462146BDE8F04D87
:103E8000FCF75ABC940700000000F03F2DE9F04118
:103E900006460F46FCF737FD041E0D4618BF0120ED
:103EA000284320F00040C0F17F6000F1E040C00FE7
:103EB0000ED0301C18BF0120384320F00040C0F164
:103EC0007F6000F1E040C00F04BF0120FEF7EEFC70
:103ED00020462946BDE8F0810102020304050607D9
:103EE00008090A0B0C0D0E0F101001020203040545
:103EF000060708090A0B0C0D0E0F10100000000039
:103F00000000000001020304060708090000000089
:103F10000102030400000000000000000000000097
:103F200000000000000000F8000000000000003366
:103F30003000000000100C06100C0600000000000D
:103F40000000000040C07840C0784000043F0404F6
:103F50003F040400007088FC08300000001820FFB7
:103F6000211E0000F008F000E018000000211C03F2
:103F70001E211E0000F00888700000001E2123246E
:103F80001927211010160E0000000000000000008C
:103F900000000000000000E018040200000000071C
:103FA0001820400000020418E00000000040201823
:103FB00007000000404080F0804040000202010FF6
:103FC00001020200000000F0000000000101011FDA
:103FD00001010100000000000000000080B070003E
:103FE00000000000000000000000000000010101CE
:103FF000010101010000000000000000003030005D
:104000000000000000000000806018040060180636
:104010000100000000E010080810E000000F102070
:1040200020100F00001010F8000000000020203FBA
:104030002020000000700808088870000030282444
:1040400022213000003008888848300000182020E5
:1040500020110E000000C02010F80000000704240A
:10406000243F240000F8088888080800001921204F
:1040700020110E0000E0108888180000000F1120A9
:1040800020110E0000380808C83808000000003F62
:10409000000000000070880808887000001C2221C1
:1040A00021221C0000E010080810E000000031226E
:1040B00022110F00000000C0C0000000000000300E
:1040C0003000000000000080000000000000806060
:1040D00000000000000080402010080000010204E1
:1040E00008102000404040404040400004040404C8
:1040F0000404040000081020408000000020100884
:1041000004020100007048080808F00000000030B8
:1041100036010000C030C828E810E0000718272446
:1041200023140B000000C038E0000000203C2302F4
:104130000227382008F8888888700000203F202057
:1041400020110E00C0300808080838000718202089
:104150002010080008F808080810E000203F202080
:1041600020100F0008F88888E8081000203F202061
:104170002320180008F88888E8081000203F200055
:1041800003000000C030080808380000071820208D
:10419000221E020008F808000008F808203F21014C
:1041A00001213F20000808F8080800000020203FF7
:1041B0002020000000000808F8080800C080808067
:1041C0007F00000008F888C028180800203F200160
:1041D0002638200008F8080000000000203F2020BA
:1041E0002020300008F8F800F8F80800203F003FD1
:1041F000003F200008F830C00008F808203F2000E9
:1042000007183F00E01008080810E0000F102020F9
:1042100020100F0008F808080808F000203F2101CE
:1042200001010000E01008080810E0000F18242425
:1042300038504F0008F8888888887000203F200098
:10424000030C30200070880808083800003820214E
:1042500021221C00180808F8080818000000203F58
:104260002000000008F808000008F808001F2020BF
:1042700020201F000878880000C838080000073890
:104280000E010000F80800F80008F800033C0700E1
:10429000073C0300081868808068180820302C0349
:1042A000032C30200838C800C83808000000203F20
:1042B0002000000010080808C8380800203826210F
:1042C00020201800000000FE020202000000007F13
:1042D00040404000000C30C0000000000000000121
:1042E0000638C00000020202FE000000004040400C
:1042F0007F00000000000402020204000000000031
:1043000000000000000000000000000080808080AD
:104310008080808000020204000000000000000095
:10432000000000000000808080800000001924222E
:1043300022223F2008F8008080000000003F11206A
:1043400020110E000000008080800000000E11206F
:1043500020201100000000808088F800000E11204D
:1043600020103F200000808080800000001F22225B
:1043700022221300008080F0888888180020203FC7
:10438000202000000000808080808000006B9494DA
:104390009493600008F8008080800000203F210096
:1043A00000203F2000809898000000000020203F5F
:1043B00020200000000000809898000000C080804D
:1043C000807F000008F8000080808000203F2402E9
:1043D0002D302000000808F8000000000020203FD9
:1043E000202000008080808080808000203F20008E
:1043F0003F20003F8080008080800000203F21001F
:1044000000203F200000808080800000001F2020CE
:1044100020201F00808000808000000080FFA120FD
:1044200020110E000000008080808000000E11200E
:1044300020A0FF80808080008080800020203F219D
:104440002000010000008080808080000033242450
:1044500024241900008080E0808000000000001FFC
:10446000202000008080000000808000001F2020AD
:1044700020103F20808080000080808000010E306E
:104480000806010080800080008080800F300C03CF
:104490000C300F0000808000808080000020312ED2
:1044A0000E312000808080000080808080818E70AE
:1044B0001806010000808080808080000021302C60
:1044C0002221300000000000807C02020000000079
:1044D000003F404000000000FF000000000000001E
:1044E000FF0000000002027C800000000040403F0E
:1044F00000000000000601010202040400000000A8
:104500000000000000000000000000000000F03F7C
:10451000000000000000F83F000000000000000064
:104520000000004003B8E23F00000000000000006F
:1045300006D0CF43EBFD4C3E033333333333E33FFD
:10454000FFAB6FDBB66DDB3F4D268F515555D53F29
:1045500001411DA96074D13F65DBC9934A86CD3FF7
:10456000EF4E454A287ECA3F3E5555555555C53FE5
:1045700093BDBE166CC166BF2CDE25AF6A56113FD7
:10458000F16BD2C541BDBBBED0A4BE726937663ED9
:104590000000000000000000B845000800000020F6
:1045A000280000008C280008E045000828000020B2
:1045B000C00400009C28000800000000010000006A
:1045C000100000000000000000127A00000000004F
:1045D00000000000000000000000000000000000DB
:04000005080000ED02
:00000001FF
